:100000000EC028C027C026C025C024C023C022C0DF
:1000100021C020C020C01EC01DC01CC01BC0112498
:100020001FBECFE5D1E0DEBFCDBF10E0A0E6B0E05F
:10003000ECE8F1E002C005900D92A236B107D9F7C5
:1000400020E0A2E6B0E001C01D92A536B207E1F7BC
:1000500089D09AC0D5CF1F921FB61F9211242F931B
:100060008F939F938091620090916300019690938B
:100070006300809362008091620090916300889792
:10008000C9F4C198809160008F3F69F08091600051
:1000900080FF56C0C39A80916000803109F05EC035
:1000A0008FEF809360009F918F912F911F901FBEC3
:1000B0001F9018958091620090916300843B90405E
:1000C00011F4C29ADFCF8091620090916300883C66
:1000D000904011F4C19AD6CF809162009091630054
:1000E000823D904031F41092600084EA8093640075
:1000F000C9CF8091620090916300803F904011F4DD
:10010000C098C0CF80916200909163008C3F904076
:1001100051F380916200909163008C37914011F40B
:10012000C298B0CF80916200909163008039914075
:1001300009F0A8CFC09A1092630010926200A2CF7B
:10014000C3988091640087FF07C0C49A80916400BF
:10015000880F809364009FCFC498F8CF809160008F
:100160008F5F9FCF84B7877F84BF88E181BD11BC3B
:100170008FE187BB18BA81E389BD82E08ABD83BF66
:0C01800080E189BF7894FFCFF894FFCF96
:02018C00FF0072
:00000001FF
