:100000000EC027C025C024C023C022C021C020C0EC
:100010001FC01EC02BC01CC01BC01AC019C0112499
:100020001FBECFEDCDBF10E0A0E6B0E0E4E9F1E007
:1000300002C005900D92A236B107D9F720E0A2E6E2
:10004000B0E001C01D92A536B207E1F78AD0A0C08A
:10005000D7CF1F921FB61F921124109263001092E7
:10006000620012BE1F901FBE1F9018951F921FB6F0
:100070001F9211242F938F939F93809162009091F0
:100080006300019690936300809362008091620008
:10009000909163004497C9F4C19A809160008F3FAA
:1000A00069F08091600080FF4AC0C39A809160002F
:1000B000803109F052C08FEF809360009F918F9143
:1000C0002F911F901FBE1F901895809162009091F4
:1000D00063004E9731F41092600084EA80936400CC
:1000E000DCCF8091620090916300CC9711F4C098AE
:1000F000D4CF80916200909163008834904059F38E
:1001000080916200909163008C3D904011F4C09A00
:10011000C4CF80916200909163008430914011F4CB
:10012000C198BBCF8091620090916300803E914066
:1001300009F0B3CF1092630010926200AECFC39863
:100140008091640087FF07C0C49A80916400880F83
:1001500080936400ABCFC498F8CF809160008F5F2C
:10016000ABCF84B7877F84BF88E181BD11BC8BE1B1
:1001700087BB84E088BB81E389BD82E08ABD83BF01
:1001800080E189BF83E085BF80E48BBF7894FFCF97
:04019000F894FFCF11
:02019400FF006A
:00000001FF
